{
  "contractName": "ContractProvider",
  "abi": [
    {
      "constant": false,
      "inputs": [
        {
          "name": "name",
          "type": "bytes32"
        }
      ],
      "name": "contracts",
      "outputs": [
        {
          "name": "addr",
          "type": "address"
        }
      ],
      "payable": false,
      "stateMutability": "nonpayable",
      "type": "function"
    }
  ],
  "bytecode": "0x6060604052341561000f57600080fd5b60db8061001d6000396000f300606060405260043610603f576000357c0100000000000000000000000000000000000000000000000000000000900463ffffffff168063ec56a373146044575b600080fd5b3415604e57600080fd5b606660048080356000191690602001909190505060a8565b604051808273ffffffffffffffffffffffffffffffffffffffff1673ffffffffffffffffffffffffffffffffffffffff16815260200191505060405180910390f35b60009190505600a165627a7a72305820c12c1549f44ffa3749ad3654fee5e3122f4a80e953a4729e9353a9bb1a6795e30029",
  "source": "contract ContractManagerEnabled {\r\n  address CM;\r\n\r\n  function setCMAddress(address cmAddr) returns (bool result){\r\n    if(CM != 0x0 && msg.sender != CM){\r\n      return false;\r\n    }\r\n    CM = cmAddr;\r\n    return true;\r\n  }\r\n\r\n  function remove(){\r\n    if(msg.sender == CM){\r\n      suicide(CM);\r\n    }\r\n  }\r\n}\r\n\r\ncontract ContractManager {\r\n  address owner;\r\n\r\n  mapping (bytes32 => address) public contracts;\r\n\r\n  modifier onlyOwner {\r\n    if(msg.sender == owner)\r\n    _;\r\n  }\r\n\r\n  function ContractManager(){\r\n    owner = msg.sender;\r\n  }\r\n\r\n  function addContract(bytes32 name, address addr) onlyOwner returns (bool result) {\r\n    ContractManagerEnabled cme = ContractManagerEnabled(addr);\r\n    if(!cme.setCMAddress(address(this))) {\r\n      return false;\r\n    }\r\n    contracts[name] = addr;\r\n    return true;\r\n  }\r\n\r\n  function removeContract(bytes32 name) onlyOwner returns (bool result){\r\n    if (contracts[name] == 0x0){\r\n      return false;\r\n    }\r\n    contracts[name] = 0x0;\r\n    return true;\r\n  }\r\n\r\n  function remove() onlyOwner {\r\n    address fs = contracts[\"farmshare\"];\r\n    address tb = contracts[\"taskboard\"];\r\n\r\n    if(fs != 0x0){ContractManagerEnabled(fs).remove(); }\r\n    if(tb != 0x0){ContractManagerEnabled(tb).remove(); }\r\n\r\n    suicide(owner);\r\n  }\r\n}\r\n\r\ncontract ContractProvider {\r\n  function contracts(bytes32 name) returns (address addr) {}\r\n}",
  "sourcePath": "C:\\Users\\anura\\Desktop\\mva\\contracts\\ContractManager.sol",
  "compiler": {
    "name": "solc",
    "version": "0.4.18+commit.9cf6e910.Emscripten.clang"
  },
  "schemaVersion": "1.0.1",
  "updatedAt": "2017-12-03T03:09:19.033Z"
}