{
  "contractName": "FarmShare",
  "abi": [
    {
      "constant": true,
      "inputs": [
        {
          "name": "",
          "type": "address"
        }
      ],
      "name": "members",
      "outputs": [
        {
          "name": "name",
          "type": "string"
        },
        {
          "name": "reputation",
          "type": "uint256"
        },
        {
          "name": "balance",
          "type": "uint256"
        },
        {
          "name": "isMember",
          "type": "bool"
        },
        {
          "name": "account",
          "type": "address"
        },
        {
          "name": "tasksCompleted",
          "type": "uint256"
        }
      ],
      "payable": false,
      "stateMutability": "view",
      "type": "function"
    },
    {
      "constant": false,
      "inputs": [
        {
          "name": "_name",
          "type": "string"
        },
        {
          "name": "_description",
          "type": "string"
        },
        {
          "name": "_price",
          "type": "uint256"
        },
        {
          "name": "_quantity",
          "type": "uint256"
        }
      ],
      "name": "newProduct",
      "outputs": [
        {
          "name": "prodId",
          "type": "uint32"
        }
      ],
      "payable": false,
      "stateMutability": "nonpayable",
      "type": "function"
    },
    {
      "constant": true,
      "inputs": [
        {
          "name": "addr",
          "type": "address"
        }
      ],
      "name": "getMemberInfo",
      "outputs": [
        {
          "name": "name",
          "type": "string"
        },
        {
          "name": "account",
          "type": "address"
        },
        {
          "name": "status",
          "type": "bool"
        },
        {
          "name": "balance",
          "type": "uint256"
        },
        {
          "name": "reputation",
          "type": "uint256"
        },
        {
          "name": "tasks",
          "type": "uint256"
        }
      ],
      "payable": false,
      "stateMutability": "view",
      "type": "function"
    },
    {
      "constant": false,
      "inputs": [
        {
          "name": "_newCommunity",
          "type": "address"
        }
      ],
      "name": "newCommunity",
      "outputs": [],
      "payable": false,
      "stateMutability": "nonpayable",
      "type": "function"
    },
    {
      "constant": false,
      "inputs": [
        {
          "name": "_newMember",
          "type": "address"
        },
        {
          "name": "_newName",
          "type": "string"
        }
      ],
      "name": "acceptMember",
      "outputs": [],
      "payable": false,
      "stateMutability": "nonpayable",
      "type": "function"
    },
    {
      "constant": true,
      "inputs": [
        {
          "name": "id",
          "type": "uint256"
        }
      ],
      "name": "getProductInfo",
      "outputs": [
        {
          "name": "name",
          "type": "string"
        },
        {
          "name": "seller",
          "type": "string"
        },
        {
          "name": "description",
          "type": "string"
        },
        {
          "name": "price",
          "type": "uint256"
        },
        {
          "name": "quantity",
          "type": "uint256"
        }
      ],
      "payable": false,
      "stateMutability": "view",
      "type": "function"
    },
    {
      "constant": false,
      "inputs": [
        {
          "name": "_newTreasury",
          "type": "address"
        }
      ],
      "name": "newTreasury",
      "outputs": [],
      "payable": false,
      "stateMutability": "nonpayable",
      "type": "function"
    },
    {
      "constant": true,
      "inputs": [],
      "name": "totalProducts",
      "outputs": [
        {
          "name": "",
          "type": "uint32"
        }
      ],
      "payable": false,
      "stateMutability": "view",
      "type": "function"
    },
    {
      "constant": false,
      "inputs": [
        {
          "name": "id",
          "type": "uint256"
        },
        {
          "name": "quant",
          "type": "uint256"
        }
      ],
      "name": "purchaseProduct",
      "outputs": [],
      "payable": false,
      "stateMutability": "nonpayable",
      "type": "function"
    },
    {
      "constant": true,
      "inputs": [],
      "name": "getParameters",
      "outputs": [
        {
          "name": "getTreasury",
          "type": "address"
        },
        {
          "name": "getCommunity",
          "type": "address"
        },
        {
          "name": "getIniMemberTokens",
          "type": "uint256"
        },
        {
          "name": "getIniMemberReputation",
          "type": "uint256"
        },
        {
          "name": "get_tokenName",
          "type": "string"
        },
        {
          "name": "get_communityName",
          "type": "string"
        }
      ],
      "payable": false,
      "stateMutability": "view",
      "type": "function"
    },
    {
      "constant": false,
      "inputs": [
        {
          "name": "_payee",
          "type": "address"
        },
        {
          "name": "_payment",
          "type": "uint256"
        }
      ],
      "name": "transfer",
      "outputs": [],
      "payable": false,
      "stateMutability": "nonpayable",
      "type": "function"
    },
    {
      "constant": false,
      "inputs": [
        {
          "name": "_newCommunityTax",
          "type": "int256"
        },
        {
          "name": "_newRewardRate",
          "type": "uint256"
        },
        {
          "name": "_newIniTokens",
          "type": "uint256"
        },
        {
          "name": "_newIniR",
          "type": "uint256"
        }
      ],
      "name": "newParameters",
      "outputs": [],
      "payable": false,
      "stateMutability": "nonpayable",
      "type": "function"
    },
    {
      "constant": false,
      "inputs": [
        {
          "name": "_oldMember",
          "type": "address"
        }
      ],
      "name": "kickOutMember",
      "outputs": [],
      "payable": false,
      "stateMutability": "nonpayable",
      "type": "function"
    },
    {
      "inputs": [],
      "payable": false,
      "stateMutability": "nonpayable",
      "type": "constructor"
    },
    {
      "anonymous": false,
      "inputs": [
        {
          "indexed": false,
          "name": "_amount",
          "type": "uint256"
        },
        {
          "indexed": true,
          "name": "_from",
          "type": "address"
        },
        {
          "indexed": true,
          "name": "_to",
          "type": "address"
        },
        {
          "indexed": false,
          "name": "_timeStampT",
          "type": "uint256"
        }
      ],
      "name": "Transfer",
      "type": "event"
    },
    {
      "anonymous": false,
      "inputs": [
        {
          "indexed": true,
          "name": "_member",
          "type": "address"
        },
        {
          "indexed": false,
          "name": "_alias",
          "type": "string"
        }
      ],
      "name": "NewMember",
      "type": "event"
    },
    {
      "anonymous": false,
      "inputs": [
        {
          "indexed": true,
          "name": "_exMember",
          "type": "address"
        },
        {
          "indexed": false,
          "name": "_exAlias",
          "type": "string"
        }
      ],
      "name": "OldMember",
      "type": "event"
    },
    {
      "anonymous": false,
      "inputs": [
        {
          "indexed": false,
          "name": "id",
          "type": "uint256"
        },
        {
          "indexed": false,
          "name": "name",
          "type": "string"
        },
        {
          "indexed": false,
          "name": "description",
          "type": "string"
        },
        {
          "indexed": false,
          "name": "price",
          "type": "uint256"
        },
        {
          "indexed": false,
          "name": "quantity",
          "type": "uint256"
        }
      ],
      "name": "NewProduct",
      "type": "event"
    }
  ],
  "bytecode": "0x606060405234156200001057600080fd5b33600460006101000a81548173ffffffffffffffffffffffffffffffffffffffff021916908373ffffffffffffffffffffffffffffffffffffffff16021790555033600560006101000a81548173ffffffffffffffffffffffffffffffffffffffff021916908373ffffffffffffffffffffffffffffffffffffffff16021790555060006009819055506064600781905550606460088190555060646000819055506040805190810160405280600681526020017f736861726573000000000000000000000000000000000000000000000000000081525060019080519060200190620000ff929190620001a2565b506040805190810160405280600281526020017f4653000000000000000000000000000000000000000000000000000000000000815250600290805190602001906200014d929190620001a2565b506040805190810160405280600981526020017f4661726d53686172650000000000000000000000000000000000000000000000815250600390805190602001906200019b929190620001a2565b5062000251565b828054600181600116156101000203166002900490600052602060002090601f016020900481019282601f10620001e557805160ff191683800117855562000216565b8280016001018555821562000216579182015b8281111562000215578251825591602001919060010190620001f8565b5b50905062000225919062000229565b5090565b6200024e91905b808211156200024a57600081600090555060010162000230565b5090565b90565b611e8280620002616000396000f3006060604052600436106100c5576000357c0100000000000000000000000000000000000000000000000000000000900463ffffffff16806308ae4b0c146100ca5780633dd7c1b9146101ec5780635f1231ea146102be57806365093661146103c35780637817a60f146103fc57806379a85e6c146104785780639718b524146105fa5780639b9d326d14610633578063a044042614610668578063a5ea11da14610694578063a9059cbb14610802578063d7bc23af14610844578063d9e947f314610882575b600080fd5b34156100d557600080fd5b610101600480803573ffffffffffffffffffffffffffffffffffffffff169060200190919050506108bb565b6040518080602001878152602001868152602001851515151581526020018473ffffffffffffffffffffffffffffffffffffffff1673ffffffffffffffffffffffffffffffffffffffff1681526020018381526020018281038252888181546001816001161561010002031660029004815260200191508054600181600116156101000203166002900480156101d85780601f106101ad576101008083540402835291602001916101d8565b820191906000526020600020905b8154815290600101906020018083116101bb57829003601f168201915b505097505050505050505060405180910390f35b34156101f757600080fd5b61029c600480803590602001908201803590602001908080601f0160208091040260200160405190810160405280939291908181526020018383808284378201915050505050509190803590602001908201803590602001908080601f01602080910402602001604051908101604052809392919081815260200183838082843782019150505050505091908035906020019091908035906020019091905050610923565b604051808263ffffffff1663ffffffff16815260200191505060405180910390f35b34156102c957600080fd5b6102f5600480803573ffffffffffffffffffffffffffffffffffffffff16906020019091905050610c60565b60405180806020018773ffffffffffffffffffffffffffffffffffffffff1673ffffffffffffffffffffffffffffffffffffffff16815260200186151515158152602001858152602001848152602001838152602001828103825288818151815260200191508051906020019080838360005b83811015610383578082015181840152602081019050610368565b50505050905090810190601f1680156103b05780820380516001836020036101000a031916815260200191505b5097505050505050505060405180910390f35b34156103ce57600080fd5b6103fa600480803573ffffffffffffffffffffffffffffffffffffffff16906020019091905050610dcf565b005b341561040757600080fd5b610476600480803573ffffffffffffffffffffffffffffffffffffffff1690602001909190803590602001908201803590602001908080601f01602080910402602001604051908101604052809392919081815260200183838082843782019150505050505091905050610e70565b005b341561048357600080fd5b6104996004808035906020019091905050611175565b60405180806020018060200180602001868152602001858152602001848103845289818151815260200191508051906020019080838360005b838110156104ed5780820151818401526020810190506104d2565b50505050905090810190601f16801561051a5780820380516001836020036101000a031916815260200191505b50848103835288818151815260200191508051906020019080838360005b83811015610553578082015181840152602081019050610538565b50505050905090810190601f1680156105805780820380516001836020036101000a031916815260200191505b50848103825287818151815260200191508051906020019080838360005b838110156105b957808201518184015260208101905061059e565b50505050905090810190601f1680156105e65780820380516001836020036101000a031916815260200191505b509850505050505050505060405180910390f35b341561060557600080fd5b610631600480803573ffffffffffffffffffffffffffffffffffffffff169060200190919050506113ae565b005b341561063e57600080fd5b61064661144f565b604051808263ffffffff1663ffffffff16815260200191505060405180910390f35b341561067357600080fd5b6106926004808035906020019091908035906020019091905050611465565b005b341561069f57600080fd5b6106a7611626565b604051808773ffffffffffffffffffffffffffffffffffffffff1673ffffffffffffffffffffffffffffffffffffffff1681526020018673ffffffffffffffffffffffffffffffffffffffff1673ffffffffffffffffffffffffffffffffffffffff1681526020018581526020018481526020018060200180602001838103835285818151815260200191508051906020019080838360005b8381101561075b578082015181840152602081019050610740565b50505050905090810190601f1680156107885780820380516001836020036101000a031916815260200191505b50838103825284818151815260200191508051906020019080838360005b838110156107c15780820151818401526020810190506107a6565b50505050905090810190601f1680156107ee5780820380516001836020036101000a031916815260200191505b509850505050505050505060405180910390f35b341561080d57600080fd5b610842600480803573ffffffffffffffffffffffffffffffffffffffff169060200190919080359060200190919050506117d2565b005b341561084f57600080fd5b6108806004808035906020019091908035906020019091908035906020019091908035906020019091905050611a1b565b005b341561088d57600080fd5b6108b9600480803573ffffffffffffffffffffffffffffffffffffffff16906020019091905050611a85565b005b600f60205280600052604060002060009150905080600001908060010154908060020154908060030160009054906101000a900460ff16908060030160019054906101000a900473ffffffffffffffffffffffffffffffffffffffff16908060040154905086565b60008060106000600b60009054906101000a900463ffffffff1663ffffffff1681526020019081526020016000209050600f60003373ffffffffffffffffffffffffffffffffffffffff1673ffffffffffffffffffffffffffffffffffffffff16815260200190815260200160002081600401600082018160000190805460018160011615610100020316600290046109bd929190611c57565b5060018201548160010155600282015481600201556003820160009054906101000a900460ff168160030160006101000a81548160ff0219169083151502179055506003820160019054906101000a900473ffffffffffffffffffffffffffffffffffffffff168160030160016101000a81548173ffffffffffffffffffffffffffffffffffffffff021916908373ffffffffffffffffffffffffffffffffffffffff160217905550600482015481600401556005820181600501908054610a86929190611cde565b5090505085816000019080519060200190610aa2929190611d3e565b5084816001019080519060200190610abb929190611d3e565b50838160020181905550828160030181905550600b600081819054906101000a900463ffffffff168092919060010191906101000a81548163ffffffff021916908363ffffffff160217905550507fc86b920148e151a78e4a627284a763302c966579a89be8494ba9562ac1f61b7b600b60009054906101000a900463ffffffff1687878787604051808663ffffffff1681526020018060200180602001858152602001848152602001838103835287818151815260200191508051906020019080838360005b83811015610b9d578082015181840152602081019050610b82565b50505050905090810190601f168015610bca5780820380516001836020036101000a031916815260200191505b50838103825286818151815260200191508051906020019080838360005b83811015610c03578082015181840152602081019050610be8565b50505050905090810190601f168015610c305780820380516001836020036101000a031916815260200191505b5097505050505050505060405180910390a1600b60009054906101000a900463ffffffff16915050949350505050565b610c68611dbe565b600080600080600080600080600080600080600f60008f73ffffffffffffffffffffffffffffffffffffffff1673ffffffffffffffffffffffffffffffffffffffff16815260200190815260200160002096508660000195508660030160019054906101000a900473ffffffffffffffffffffffffffffffffffffffff1694508660030160009054906101000a900460ff169350866002015492508660010154915086600401549050858585858585858054600181600116156101000203166002900480601f016020809104026020016040519081016040528092919081815260200182805460018160011615610100020316600290048015610dac5780601f10610d8157610100808354040283529160200191610dac565b820191906000526020600020905b815481529060010190602001808311610d8f57829003601f168201915b505050505095509c509c509c509c509c509c505050505050505091939550919395565b600460009054906101000a900473ffffffffffffffffffffffffffffffffffffffff1673ffffffffffffffffffffffffffffffffffffffff163373ffffffffffffffffffffffffffffffffffffffff16141515610e2b57610e6d565b80600560006101000a81548173ffffffffffffffffffffffffffffffffffffffff021916908373ffffffffffffffffffffffffffffffffffffffff1602179055505b50565b600560009054906101000a900473ffffffffffffffffffffffffffffffffffffffff1673ffffffffffffffffffffffffffffffffffffffff163373ffffffffffffffffffffffffffffffffffffffff16141515610ecc57611171565b81600f60008473ffffffffffffffffffffffffffffffffffffffff1673ffffffffffffffffffffffffffffffffffffffff16815260200190815260200160002060030160016101000a81548173ffffffffffffffffffffffffffffffffffffffff021916908373ffffffffffffffffffffffffffffffffffffffff1602179055506001600f60008473ffffffffffffffffffffffffffffffffffffffff1673ffffffffffffffffffffffffffffffffffffffff16815260200190815260200160002060030160006101000a81548160ff021916908315150217905550600754600f60008473ffffffffffffffffffffffffffffffffffffffff1673ffffffffffffffffffffffffffffffffffffffff1681526020019081526020016000206002018190555080600f60008473ffffffffffffffffffffffffffffffffffffffff1673ffffffffffffffffffffffffffffffffffffffff1681526020019081526020016000206000019080519060200190611047929190611d3e565b50600a805480600101828161105c9190611dd2565b9160005260206000209001600084909190916101000a81548173ffffffffffffffffffffffffffffffffffffffff021916908373ffffffffffffffffffffffffffffffffffffffff160217905550506007546009600082825401925050819055508173ffffffffffffffffffffffffffffffffffffffff167f2373fd48c1688b65732996810a391f6ad6d243ae22414ffdbb4e3495c8302e43826040518080602001828103825283818151815260200191508051906020019080838360005b8381101561113657808201518184015260208101905061111b565b50505050905090810190601f1680156111635780820380516001836020036101000a031916815260200191505b509250505060405180910390a25b5050565b61117d611dbe565b611185611dbe565b61118d611dbe565b6000806000601060008881526020019081526020016000209050806000018054600181600116156101000203166002900480601f01602080910402602001604051908101604052809291908181526020018280546001816001161561010002031660029004801561123f5780601f106112145761010080835404028352916020019161123f565b820191906000526020600020905b81548152906001019060200180831161122257829003601f168201915b50505050509550806004016000018054600181600116156101000203166002900480601f0160208091040260200160405190810160405280929190818152602001828054600181600116156101000203166002900480156112e15780601f106112b6576101008083540402835291602001916112e1565b820191906000526020600020905b8154815290600101906020018083116112c457829003601f168201915b50505050509450806001018054600181600116156101000203166002900480601f0160208091040260200160405190810160405280929190818152602001828054600181600116156101000203166002900480156113805780601f1061135557610100808354040283529160200191611380565b820191906000526020600020905b81548152906001019060200180831161136357829003601f168201915b5050505050935080600201549250806003015491508585858585955095509550955095505091939590929450565b600560009054906101000a900473ffffffffffffffffffffffffffffffffffffffff1673ffffffffffffffffffffffffffffffffffffffff163373ffffffffffffffffffffffffffffffffffffffff1614151561140a5761144c565b80600460006101000a81548173ffffffffffffffffffffffffffffffffffffffff021916908373ffffffffffffffffffffffffffffffffffffffff1602179055505b50565b600b60009054906101000a900463ffffffff1681565b60006010600084815260200190815260200160002090508060040160030160019054906101000a900473ffffffffffffffffffffffffffffffffffffffff1673ffffffffffffffffffffffffffffffffffffffff163373ffffffffffffffffffffffffffffffffffffffff1614158015611527575081816002015402600f60003373ffffffffffffffffffffffffffffffffffffffff1673ffffffffffffffffffffffffffffffffffffffff1681526020019081526020016000206002015410155b80156115365750818160030154115b156116215781816002015402600f60003373ffffffffffffffffffffffffffffffffffffffff1673ffffffffffffffffffffffffffffffffffffffff1681526020019081526020016000206002016000828254039250508190555081816002015402600f60008360040160030160019054906101000a900473ffffffffffffffffffffffffffffffffffffffff1673ffffffffffffffffffffffffffffffffffffffff1673ffffffffffffffffffffffffffffffffffffffff168152602001908152602001600020600201600082825401925050819055508181600301600082825403925050819055505b505050565b600080600080611634611dbe565b61163c611dbe565b600460009054906101000a900473ffffffffffffffffffffffffffffffffffffffff169550600560009054906101000a900473ffffffffffffffffffffffffffffffffffffffff1694506007549350600854925060018054600181600116156101000203166002900480601f0160208091040260200160405190810160405280929190818152602001828054600181600116156101000203166002900480156117265780601f106116fb57610100808354040283529160200191611726565b820191906000526020600020905b81548152906001019060200180831161170957829003601f168201915b5050505050915060038054600181600116156101000203166002900480601f0160208091040260200160405190810160405280929190818152602001828054600181600116156101000203166002900480156117c35780601f10611798576101008083540402835291602001916117c3565b820191906000526020600020905b8154815290600101906020018083116117a657829003601f168201915b50505050509050909192939495565b600080600f60003373ffffffffffffffffffffffffffffffffffffffff1673ffffffffffffffffffffffffffffffffffffffff16815260200190815260200160002060020154915082905080821115611a155780600f60003373ffffffffffffffffffffffffffffffffffffffff1673ffffffffffffffffffffffffffffffffffffffff1681526020019081526020016000206002016000828254039250508190555080600f60008673ffffffffffffffffffffffffffffffffffffffff1673ffffffffffffffffffffffffffffffffffffffff16815260200190815260200160002060020160008282540192505081905550606460065482028115156118d557fe5b04600f60008673ffffffffffffffffffffffffffffffffffffffff1673ffffffffffffffffffffffffffffffffffffffff168152602001908152602001600020600201600082825403925050819055506064600654820281151561193557fe5b04600f6000600560009054906101000a900473ffffffffffffffffffffffffffffffffffffffff1673ffffffffffffffffffffffffffffffffffffffff1673ffffffffffffffffffffffffffffffffffffffff168152602001908152602001600020600201600082825401925050819055508373ffffffffffffffffffffffffffffffffffffffff163373ffffffffffffffffffffffffffffffffffffffff167ff2dbd98d79f00f7aff338b824931d607bfcc63d47307162470f25a055102d3b08542604051808381526020018281526020019250505060405180910390a35b50505050565b600460009054906101000a900473ffffffffffffffffffffffffffffffffffffffff1673ffffffffffffffffffffffffffffffffffffffff163373ffffffffffffffffffffffffffffffffffffffff16141515611a7757611a7f565b816007819055505b50505050565b6000600560009054906101000a900473ffffffffffffffffffffffffffffffffffffffff1673ffffffffffffffffffffffffffffffffffffffff163373ffffffffffffffffffffffffffffffffffffffff16141515611ae357611c53565b6000600f60008473ffffffffffffffffffffffffffffffffffffffff1673ffffffffffffffffffffffffffffffffffffffff16815260200190815260200160002060030160006101000a81548160ff021916908315150217905550600f60008373ffffffffffffffffffffffffffffffffffffffff1673ffffffffffffffffffffffffffffffffffffffff16815260200190815260200160002060000190508173ffffffffffffffffffffffffffffffffffffffff167f68a013b7171e96d379c50f94032a2db48bd01650bc68f0d5e8c0ae9da6e6a70f826040518080602001828103825283818154600181600116156101000203166002900481526020019150805460018160011615610100020316600290048015611c445780601f10611c1957610100808354040283529160200191611c44565b820191906000526020600020905b815481529060010190602001808311611c2757829003601f168201915b50509250505060405180910390a25b5050565b828054600181600116156101000203166002900490600052602060002090601f016020900481019282601f10611c905780548555611ccd565b82800160010185558215611ccd57600052602060002091601f016020900482015b82811115611ccc578254825591600101919060010190611cb1565b5b509050611cda9190611dfe565b5090565b82805482825590600052602060002090600701600890048101928215611d2d576000526020600020916007016008900482015b82811115611d2c578254825591600101919060010190611d11565b5b509050611d3a9190611e23565b5090565b828054600181600116156101000203166002900490600052602060002090601f016020900481019282601f10611d7f57805160ff1916838001178555611dad565b82800160010185558215611dad579182015b82811115611dac578251825591602001919060010190611d91565b5b509050611dba9190611dfe565b5090565b602060405190810160405280600081525090565b815481835581811511611df957818360005260206000209182019101611df89190611dfe565b5b505050565b611e2091905b80821115611e1c576000816000905550600101611e04565b5090565b90565b611e5391905b80821115611e4f57600081816101000a81549063ffffffff021916905550600101611e29565b5090565b905600a165627a7a72305820956941f5ee9395053a35d3d96fa09a73432670114d8da571fa6c3e1c39dff4d20029",
  "source": "import \"./ContractManager.sol\";\r\n\r\ncontract FarmShareInterface {\r\n\tfunction transfer(address _payee, uint _payment) {}\r\n\r\n\tfunction getParameters() constant returns (address getTreasury, address getCommunity, uint getIniMemberTokens, uint getIniMemberReputation, string get_tokenName, string get_communityName) {}\r\n\r\n\tfunction newParameters (int _newCommunityTax, uint _newRewardRate, uint _newIniTokens, uint _newIniR) {}\r\n\r\n\tfunction newCommunity (address _newCommunity) {}\r\n\r\n\tfunction newTreasury (address _newTreasury) {}\r\n\r\n\tfunction acceptMember (address _newMember, string _newName) {}\r\n\r\n\tfunction kickOutMember (address _oldMember) {}\r\n\r\n\tfunction getMemberInfo(address addr) constant returns(string name, address account, bool status, uint balance, uint reputation, uint tasks) {}\r\n\r\n\tfunction newProduct(string _name, string _description, uint256 _price, uint _quantity) public returns (uint32 prodId) {}\r\n\r\n\tfunction getProductInfo(uint id) constant returns(string name, string seller, string description, uint price, uint quantity) {}\r\n\r\n\tfunction purchaseProduct(uint id, uint quant) {}\r\n\r\n\tevent Transfer(uint _amount, address indexed _from, address indexed _to, uint _timeStampT);\r\n\tevent NewMember(address indexed _member, string _alias);\r\n\tevent OldMember(address indexed _exMember, string _exAlias);\r\n\tevent NewProduct(uint id, string name, string description, uint price, uint quantity);\r\n}\r\n\r\ncontract FarmShare is FarmShareInterface {\r\n\r\n\t//token parameters\r\n\tuint _baseUnits;\r\n\tstring _tokenName;\r\n\tstring _symbol;\r\n\tstring _communityName;\r\n\r\n\t//community parameters\r\n\taddress _treasury;\r\n\taddress _community;\r\n\tuint _communityTax;\r\n\tuint _iniMemberTokens;\r\n\tuint _iniMemberRep;\r\n\r\n\tuint _totalMinted;\r\n\r\n\taddress[] memberArray;\r\n\r\n\t//market stuff\r\n\tuint32 public totalProducts;\r\n\tuint32[] productArray;\r\n\taddress[] sellerArray;\r\n\taddress[] buyerArray;\r\n\r\n\t//constructor\r\n\tfunction FarmShare () {\r\n\t\t_treasury = msg.sender;\r\n\t\t_community = msg.sender;\r\n\t\t_totalMinted = 0;\r\n\t\t_iniMemberTokens = 100;\r\n\t\t_iniMemberRep = 100;\r\n\t\t_baseUnits = 100;\r\n\t\t_tokenName = \"shares\";\r\n\t\t_symbol = \"FS\";\r\n\t\t_communityName = \"FarmShare\";\r\n\t}\r\n\r\n\tstruct Member {\r\n\t\tstring name;\r\n\t\tuint reputation;\r\n\t\tuint balance;\r\n\t\tbool isMember;\r\n\t\taddress account;\r\n\t\tuint tasksCompleted;\r\n\t\tuint32[] taskIds;\r\n\t}\r\n\r\n\tstruct Product {\r\n\t\tstring name;\r\n\t\tstring description;\r\n\t\tuint price;\r\n\t\tuint quantity;\r\n\t\tMember seller;\r\n\t\tMember buyer;\r\n\t}\r\n\r\n\tmapping (address => Member) public members;\r\n\tmapping (uint => Product) products;\r\n\r\n\tevent Transfer(uint _amount, address indexed _from, address indexed _to, uint _timeStampT);\r\n\tevent NewMember(address indexed _member, string _alias);\r\n\tevent OldMember(address indexed _exMember, string _exAlias);\r\n\tevent NewProduct(uint id, string name, string description, uint price, uint quantity);\r\n\r\n\tfunction transfer (address _payee, uint _payment) {\r\n\t\tuint _available = members[msg.sender].balance;\r\n\t\tuint _amountTokens = uint(_payment);\r\n\t\tif (_available > _amountTokens) {\r\n\t\t\tmembers[msg.sender].balance -= _amountTokens;\r\n\t\t\tmembers[_payee].balance += _amountTokens;\r\n\t\t\t// @notice apply community tax and send it to the Community account\r\n\t\t\tmembers[_payee].balance -= _amountTokens * _communityTax/100;\r\n\t\t\tmembers[_community].balance += _amountTokens * _communityTax/100;\r\n\t\t\tTransfer(_payment, msg.sender, _payee, now);\r\n\t\t}\r\n\t}\r\n\r\n\tfunction getParameters() constant returns (address getTreasury, address getCommunity, uint getIniMemberTokens, uint getIniMemberReputation, string get_tokenName, string get_communityName) {\r\n\t\tgetTreasury = _treasury;\r\n\t\tgetCommunity = _community;\r\n\t\tgetIniMemberTokens = _iniMemberTokens;\r\n\t\tgetIniMemberReputation = _iniMemberRep;\r\n\t\tget_tokenName = _tokenName;\r\n\t\tget_communityName = _communityName;\r\n\t}\r\n\r\n\tfunction newParameters (int _newCommunityTax, uint _newRewardRate, uint _newIniTokens, uint _newIniR) {\r\n\t\tif (msg.sender != _treasury) return;\r\n\t\t_iniMemberTokens = _newIniTokens;\r\n\t}\r\n\r\n\tfunction newCommunity (address _newCommunity) {\r\n\t\tif (msg.sender != _treasury) return;\r\n\t\t_community = _newCommunity;\r\n\t}\r\n\r\n\tfunction newTreasury (address _newTreasury) {\r\n\t\tif (msg.sender != _community) return;\r\n\t\t_treasury = _newTreasury;\r\n\t}\r\n\r\n\t//membership\r\n\tfunction acceptMember (address _newMember, string _newName) {\r\n\t\tif (msg.sender != _community) return;\r\n\t\tmembers[_newMember].account = _newMember;\r\n\t\tmembers[_newMember].isMember = true;\r\n\t\tmembers[_newMember].balance = _iniMemberTokens;\r\n\t\tmembers[_newMember].name = _newName;\r\n\t\tmemberArray.push(_newMember);\r\n\t\t_totalMinted += _iniMemberTokens;\r\n\t\tNewMember(_newMember, _newName);\r\n\t}\r\n\r\n\tfunction kickOutMember (address _oldMember) {\r\n\t\tif (msg.sender != _community) return;\r\n\t\tmembers[_oldMember].isMember = false;\r\n\t\tstring _oldName = members[_oldMember].name;\r\n\t\tOldMember(_oldMember, _oldName);\r\n\t}\r\n\r\n\tfunction getMemberInfo(address addr) constant returns(string name, address account, bool status, uint balance, uint reputation, uint tasks) {\r\n\t\tMember member = members[addr];\r\n\t\tstring memberName = member.name;\r\n\t\taddress memberAcct = member.account;\r\n\t\tbool memberStatus = member.isMember;\r\n\t\tuint memberBal = member.balance;\r\n\t\tuint memberRep = member.reputation;\r\n\t\tuint memberTasks = member.tasksCompleted;\r\n\t\treturn(memberName, memberAcct, memberStatus, memberBal, memberRep, memberTasks);\r\n\t}\r\n\r\n\t\t//market\r\n\tfunction newProduct(string _name, string _description, uint256 _price, uint _quantity) public returns (uint32 prodId) {\r\n\t\tProduct newProduct = products[totalProducts];\r\n\t\tnewProduct.seller = members[msg.sender];\r\n\t\tnewProduct.name = _name;\r\n\t\tnewProduct.description = _description;\r\n\t\tnewProduct.price = _price;\r\n\t\tnewProduct.quantity = _quantity;\r\n\r\n\t\ttotalProducts++;\r\n\t\t// productArray.push(totalProducts);\r\n\r\n\t\tNewProduct(totalProducts, _name, _description, _price, _quantity);\r\n\t\treturn(totalProducts);\r\n\t}\r\n\r\n\tfunction getProductInfo(uint id) constant returns(string name, string seller, string description, uint price, uint quantity) {\r\n\t\tProduct prod = products[id];\r\n\t\tname = prod.name;\r\n\t\tseller = prod.seller.name;\r\n\t\tdescription = prod.description;\r\n\t\tprice = prod.price;\r\n\t\tquantity = prod.quantity;\r\n\t\treturn (name, seller, description, price, quantity);\r\n\t}\r\n\r\n\tfunction purchaseProduct(uint id, uint quant) {\r\n\t\tProduct product = products[id];\r\n\t\tif (msg.sender != product.seller.account && members[msg.sender].balance >= product.price*quant && product.quantity > quant) {\r\n\t\t\tmembers[msg.sender].balance -= product.price*quant;\r\n\t\t\tmembers[product.seller.account].balance += product.price*quant;\r\n\t\t\tproduct.quantity -= quant;\r\n\t\t}\r\n\t}\r\n}",
  "sourcePath": "C:\\Users\\anura\\Desktop\\mva\\contracts\\FarmShare.sol",
  "compiler": {
    "name": "solc",
    "version": "0.4.18+commit.9cf6e910.Emscripten.clang"
  },
  "schemaVersion": "1.0.1",
  "updatedAt": "2017-12-03T03:09:19.064Z"
}