{
  "contractName": "FarmShareInterface",
  "abi": [
    {
      "constant": false,
      "inputs": [
        {
          "name": "_name",
          "type": "string"
        },
        {
          "name": "_description",
          "type": "string"
        },
        {
          "name": "_price",
          "type": "uint256"
        },
        {
          "name": "_quantity",
          "type": "uint256"
        }
      ],
      "name": "newProduct",
      "outputs": [
        {
          "name": "prodId",
          "type": "uint32"
        }
      ],
      "payable": false,
      "stateMutability": "nonpayable",
      "type": "function"
    },
    {
      "constant": true,
      "inputs": [
        {
          "name": "addr",
          "type": "address"
        }
      ],
      "name": "getMemberInfo",
      "outputs": [
        {
          "name": "name",
          "type": "string"
        },
        {
          "name": "account",
          "type": "address"
        },
        {
          "name": "status",
          "type": "bool"
        },
        {
          "name": "balance",
          "type": "uint256"
        },
        {
          "name": "reputation",
          "type": "uint256"
        },
        {
          "name": "tasks",
          "type": "uint256"
        }
      ],
      "payable": false,
      "stateMutability": "view",
      "type": "function"
    },
    {
      "constant": false,
      "inputs": [
        {
          "name": "_newCommunity",
          "type": "address"
        }
      ],
      "name": "newCommunity",
      "outputs": [],
      "payable": false,
      "stateMutability": "nonpayable",
      "type": "function"
    },
    {
      "constant": false,
      "inputs": [
        {
          "name": "_newMember",
          "type": "address"
        },
        {
          "name": "_newName",
          "type": "string"
        }
      ],
      "name": "acceptMember",
      "outputs": [],
      "payable": false,
      "stateMutability": "nonpayable",
      "type": "function"
    },
    {
      "constant": true,
      "inputs": [
        {
          "name": "id",
          "type": "uint256"
        }
      ],
      "name": "getProductInfo",
      "outputs": [
        {
          "name": "name",
          "type": "string"
        },
        {
          "name": "seller",
          "type": "string"
        },
        {
          "name": "description",
          "type": "string"
        },
        {
          "name": "price",
          "type": "uint256"
        },
        {
          "name": "quantity",
          "type": "uint256"
        }
      ],
      "payable": false,
      "stateMutability": "view",
      "type": "function"
    },
    {
      "constant": false,
      "inputs": [
        {
          "name": "_newTreasury",
          "type": "address"
        }
      ],
      "name": "newTreasury",
      "outputs": [],
      "payable": false,
      "stateMutability": "nonpayable",
      "type": "function"
    },
    {
      "constant": false,
      "inputs": [
        {
          "name": "id",
          "type": "uint256"
        },
        {
          "name": "quant",
          "type": "uint256"
        }
      ],
      "name": "purchaseProduct",
      "outputs": [],
      "payable": false,
      "stateMutability": "nonpayable",
      "type": "function"
    },
    {
      "constant": true,
      "inputs": [],
      "name": "getParameters",
      "outputs": [
        {
          "name": "getTreasury",
          "type": "address"
        },
        {
          "name": "getCommunity",
          "type": "address"
        },
        {
          "name": "getIniMemberTokens",
          "type": "uint256"
        },
        {
          "name": "getIniMemberReputation",
          "type": "uint256"
        },
        {
          "name": "get_tokenName",
          "type": "string"
        },
        {
          "name": "get_communityName",
          "type": "string"
        }
      ],
      "payable": false,
      "stateMutability": "view",
      "type": "function"
    },
    {
      "constant": false,
      "inputs": [
        {
          "name": "_payee",
          "type": "address"
        },
        {
          "name": "_payment",
          "type": "uint256"
        }
      ],
      "name": "transfer",
      "outputs": [],
      "payable": false,
      "stateMutability": "nonpayable",
      "type": "function"
    },
    {
      "constant": false,
      "inputs": [
        {
          "name": "_newCommunityTax",
          "type": "int256"
        },
        {
          "name": "_newRewardRate",
          "type": "uint256"
        },
        {
          "name": "_newIniTokens",
          "type": "uint256"
        },
        {
          "name": "_newIniR",
          "type": "uint256"
        }
      ],
      "name": "newParameters",
      "outputs": [],
      "payable": false,
      "stateMutability": "nonpayable",
      "type": "function"
    },
    {
      "constant": false,
      "inputs": [
        {
          "name": "_oldMember",
          "type": "address"
        }
      ],
      "name": "kickOutMember",
      "outputs": [],
      "payable": false,
      "stateMutability": "nonpayable",
      "type": "function"
    },
    {
      "anonymous": false,
      "inputs": [
        {
          "indexed": false,
          "name": "_amount",
          "type": "uint256"
        },
        {
          "indexed": true,
          "name": "_from",
          "type": "address"
        },
        {
          "indexed": true,
          "name": "_to",
          "type": "address"
        },
        {
          "indexed": false,
          "name": "_timeStampT",
          "type": "uint256"
        }
      ],
      "name": "Transfer",
      "type": "event"
    },
    {
      "anonymous": false,
      "inputs": [
        {
          "indexed": true,
          "name": "_member",
          "type": "address"
        },
        {
          "indexed": false,
          "name": "_alias",
          "type": "string"
        }
      ],
      "name": "NewMember",
      "type": "event"
    },
    {
      "anonymous": false,
      "inputs": [
        {
          "indexed": true,
          "name": "_exMember",
          "type": "address"
        },
        {
          "indexed": false,
          "name": "_exAlias",
          "type": "string"
        }
      ],
      "name": "OldMember",
      "type": "event"
    },
    {
      "anonymous": false,
      "inputs": [
        {
          "indexed": false,
          "name": "id",
          "type": "uint256"
        },
        {
          "indexed": false,
          "name": "name",
          "type": "string"
        },
        {
          "indexed": false,
          "name": "description",
          "type": "string"
        },
        {
          "indexed": false,
          "name": "price",
          "type": "uint256"
        },
        {
          "indexed": false,
          "name": "quantity",
          "type": "uint256"
        }
      ],
      "name": "NewProduct",
      "type": "event"
    }
  ],
  "bytecode": "0x6060604052341561000f57600080fd5b61080e8061001e6000396000f3006060604052600436106100af576000357c0100000000000000000000000000000000000000000000000000000000900463ffffffff1680633dd7c1b9146100b45780635f1231ea14610186578063650936611461028b5780637817a60f146102c457806379a85e6c146103405780639718b524146104c2578063a0440426146104fb578063a5ea11da14610527578063a9059cbb14610695578063d7bc23af146106d7578063d9e947f314610715575b600080fd5b34156100bf57600080fd5b610164600480803590602001908201803590602001908080601f0160208091040260200160405190810160405280939291908181526020018383808284378201915050505050509190803590602001908201803590602001908080601f0160208091040260200160405190810160405280939291908181526020018383808284378201915050505050509190803590602001909190803590602001909190505061074e565b604051808263ffffffff1663ffffffff16815260200191505060405180910390f35b341561019157600080fd5b6101bd600480803573ffffffffffffffffffffffffffffffffffffffff16906020019091905050610758565b60405180806020018773ffffffffffffffffffffffffffffffffffffffff1673ffffffffffffffffffffffffffffffffffffffff16815260200186151515158152602001858152602001848152602001838152602001828103825288818151815260200191508051906020019080838360005b8381101561024b578082015181840152602081019050610230565b50505050905090810190601f1680156102785780820380516001836020036101000a031916815260200191505b5097505050505050505060405180910390f35b341561029657600080fd5b6102c2600480803573ffffffffffffffffffffffffffffffffffffffff16906020019091905050610771565b005b34156102cf57600080fd5b61033e600480803573ffffffffffffffffffffffffffffffffffffffff1690602001909190803590602001908201803590602001908080601f01602080910402602001604051908101604052809392919081815260200183838082843782019150505050505091905050610774565b005b341561034b57600080fd5b6103616004808035906020019091905050610778565b60405180806020018060200180602001868152602001858152602001848103845289818151815260200191508051906020019080838360005b838110156103b557808201518184015260208101905061039a565b50505050905090810190601f1680156103e25780820380516001836020036101000a031916815260200191505b50848103835288818151815260200191508051906020019080838360005b8381101561041b578082015181840152602081019050610400565b50505050905090810190601f1680156104485780820380516001836020036101000a031916815260200191505b50848103825287818151815260200191508051906020019080838360005b83811015610481578082015181840152602081019050610466565b50505050905090810190601f1680156104ae5780820380516001836020036101000a031916815260200191505b509850505050505050505060405180910390f35b34156104cd57600080fd5b6104f9600480803573ffffffffffffffffffffffffffffffffffffffff1690602001909190505061079c565b005b341561050657600080fd5b610525600480803590602001909190803590602001909190505061079f565b005b341561053257600080fd5b61053a6107a3565b604051808773ffffffffffffffffffffffffffffffffffffffff1673ffffffffffffffffffffffffffffffffffffffff1681526020018673ffffffffffffffffffffffffffffffffffffffff1673ffffffffffffffffffffffffffffffffffffffff1681526020018581526020018481526020018060200180602001838103835285818151815260200191508051906020019080838360005b838110156105ee5780820151818401526020810190506105d3565b50505050905090810190601f16801561061b5780820380516001836020036101000a031916815260200191505b50838103825284818151815260200191508051906020019080838360005b83811015610654578082015181840152602081019050610639565b50505050905090810190601f1680156106815780820380516001836020036101000a031916815260200191505b509850505050505050505060405180910390f35b34156106a057600080fd5b6106d5600480803573ffffffffffffffffffffffffffffffffffffffff169060200190919080359060200190919050506107c1565b005b34156106e257600080fd5b61071360048080359060200190919080359060200190919080359060200190919080359060200190919050506107c5565b005b341561072057600080fd5b61074c600480803573ffffffffffffffffffffffffffffffffffffffff169060200190919050506107cb565b005b6000949350505050565b6107606107ce565b600080600080600091939550919395565b50565b5050565b6107806107ce565b6107886107ce565b6107906107ce565b60008091939590929450565b50565b5050565b6000806000806107b16107ce565b6107b96107ce565b909192939495565b5050565b50505050565b50565b6020604051908101604052806000815250905600a165627a7a723058206cddaba58bbc01a4d4ca0a5c417b2cad8a4e840bbb584f01d9e9688343b3f1820029",
  "source": "import \"./ContractManager.sol\";\r\n\r\ncontract FarmShareInterface {\r\n\tfunction transfer(address _payee, uint _payment) {}\r\n\r\n\tfunction getParameters() constant returns (address getTreasury, address getCommunity, uint getIniMemberTokens, uint getIniMemberReputation, string get_tokenName, string get_communityName) {}\r\n\r\n\tfunction newParameters (int _newCommunityTax, uint _newRewardRate, uint _newIniTokens, uint _newIniR) {}\r\n\r\n\tfunction newCommunity (address _newCommunity) {}\r\n\r\n\tfunction newTreasury (address _newTreasury) {}\r\n\r\n\tfunction acceptMember (address _newMember, string _newName) {}\r\n\r\n\tfunction kickOutMember (address _oldMember) {}\r\n\r\n\tfunction getMemberInfo(address addr) constant returns(string name, address account, bool status, uint balance, uint reputation, uint tasks) {}\r\n\r\n\tfunction newProduct(string _name, string _description, uint256 _price, uint _quantity) public returns (uint32 prodId) {}\r\n\r\n\tfunction getProductInfo(uint id) constant returns(string name, string seller, string description, uint price, uint quantity) {}\r\n\r\n\tfunction purchaseProduct(uint id, uint quant) {}\r\n\r\n\tevent Transfer(uint _amount, address indexed _from, address indexed _to, uint _timeStampT);\r\n\tevent NewMember(address indexed _member, string _alias);\r\n\tevent OldMember(address indexed _exMember, string _exAlias);\r\n\tevent NewProduct(uint id, string name, string description, uint price, uint quantity);\r\n}\r\n\r\ncontract FarmShare is FarmShareInterface {\r\n\r\n\t//token parameters\r\n\tuint _baseUnits;\r\n\tstring _tokenName;\r\n\tstring _symbol;\r\n\tstring _communityName;\r\n\r\n\t//community parameters\r\n\taddress _treasury;\r\n\taddress _community;\r\n\tuint _communityTax;\r\n\tuint _iniMemberTokens;\r\n\tuint _iniMemberRep;\r\n\r\n\tuint _totalMinted;\r\n\r\n\taddress[] memberArray;\r\n\r\n\t//market stuff\r\n\tuint32 public totalProducts;\r\n\tuint32[] productArray;\r\n\taddress[] sellerArray;\r\n\taddress[] buyerArray;\r\n\r\n\t//constructor\r\n\tfunction FarmShare () {\r\n\t\t_treasury = msg.sender;\r\n\t\t_community = msg.sender;\r\n\t\t_totalMinted = 0;\r\n\t\t_iniMemberTokens = 100;\r\n\t\t_iniMemberRep = 100;\r\n\t\t_baseUnits = 100;\r\n\t\t_tokenName = \"shares\";\r\n\t\t_symbol = \"FS\";\r\n\t\t_communityName = \"FarmShare\";\r\n\t}\r\n\r\n\tstruct Member {\r\n\t\tstring name;\r\n\t\tuint reputation;\r\n\t\tuint balance;\r\n\t\tbool isMember;\r\n\t\taddress account;\r\n\t\tuint tasksCompleted;\r\n\t\tuint32[] taskIds;\r\n\t}\r\n\r\n\tstruct Product {\r\n\t\tstring name;\r\n\t\tstring description;\r\n\t\tuint price;\r\n\t\tuint quantity;\r\n\t\tMember seller;\r\n\t\tMember buyer;\r\n\t}\r\n\r\n\tmapping (address => Member) public members;\r\n\tmapping (uint => Product) products;\r\n\r\n\tevent Transfer(uint _amount, address indexed _from, address indexed _to, uint _timeStampT);\r\n\tevent NewMember(address indexed _member, string _alias);\r\n\tevent OldMember(address indexed _exMember, string _exAlias);\r\n\tevent NewProduct(uint id, string name, string description, uint price, uint quantity);\r\n\r\n\tfunction transfer (address _payee, uint _payment) {\r\n\t\tuint _available = members[msg.sender].balance;\r\n\t\tuint _amountTokens = uint(_payment);\r\n\t\tif (_available > _amountTokens) {\r\n\t\t\tmembers[msg.sender].balance -= _amountTokens;\r\n\t\t\tmembers[_payee].balance += _amountTokens;\r\n\t\t\t// @notice apply community tax and send it to the Community account\r\n\t\t\tmembers[_payee].balance -= _amountTokens * _communityTax/100;\r\n\t\t\tmembers[_community].balance += _amountTokens * _communityTax/100;\r\n\t\t\tTransfer(_payment, msg.sender, _payee, now);\r\n\t\t}\r\n\t}\r\n\r\n\tfunction getParameters() constant returns (address getTreasury, address getCommunity, uint getIniMemberTokens, uint getIniMemberReputation, string get_tokenName, string get_communityName) {\r\n\t\tgetTreasury = _treasury;\r\n\t\tgetCommunity = _community;\r\n\t\tgetIniMemberTokens = _iniMemberTokens;\r\n\t\tgetIniMemberReputation = _iniMemberRep;\r\n\t\tget_tokenName = _tokenName;\r\n\t\tget_communityName = _communityName;\r\n\t}\r\n\r\n\tfunction newParameters (int _newCommunityTax, uint _newRewardRate, uint _newIniTokens, uint _newIniR) {\r\n\t\tif (msg.sender != _treasury) return;\r\n\t\t_iniMemberTokens = _newIniTokens;\r\n\t}\r\n\r\n\tfunction newCommunity (address _newCommunity) {\r\n\t\tif (msg.sender != _treasury) return;\r\n\t\t_community = _newCommunity;\r\n\t}\r\n\r\n\tfunction newTreasury (address _newTreasury) {\r\n\t\tif (msg.sender != _community) return;\r\n\t\t_treasury = _newTreasury;\r\n\t}\r\n\r\n\t//membership\r\n\tfunction acceptMember (address _newMember, string _newName) {\r\n\t\tif (msg.sender != _community) return;\r\n\t\tmembers[_newMember].account = _newMember;\r\n\t\tmembers[_newMember].isMember = true;\r\n\t\tmembers[_newMember].balance = _iniMemberTokens;\r\n\t\tmembers[_newMember].name = _newName;\r\n\t\tmemberArray.push(_newMember);\r\n\t\t_totalMinted += _iniMemberTokens;\r\n\t\tNewMember(_newMember, _newName);\r\n\t}\r\n\r\n\tfunction kickOutMember (address _oldMember) {\r\n\t\tif (msg.sender != _community) return;\r\n\t\tmembers[_oldMember].isMember = false;\r\n\t\tstring _oldName = members[_oldMember].name;\r\n\t\tOldMember(_oldMember, _oldName);\r\n\t}\r\n\r\n\tfunction getMemberInfo(address addr) constant returns(string name, address account, bool status, uint balance, uint reputation, uint tasks) {\r\n\t\tMember member = members[addr];\r\n\t\tstring memberName = member.name;\r\n\t\taddress memberAcct = member.account;\r\n\t\tbool memberStatus = member.isMember;\r\n\t\tuint memberBal = member.balance;\r\n\t\tuint memberRep = member.reputation;\r\n\t\tuint memberTasks = member.tasksCompleted;\r\n\t\treturn(memberName, memberAcct, memberStatus, memberBal, memberRep, memberTasks);\r\n\t}\r\n\r\n\t\t//market\r\n\tfunction newProduct(string _name, string _description, uint256 _price, uint _quantity) public returns (uint32 prodId) {\r\n\t\tProduct newProduct = products[totalProducts];\r\n\t\tnewProduct.seller = members[msg.sender];\r\n\t\tnewProduct.name = _name;\r\n\t\tnewProduct.description = _description;\r\n\t\tnewProduct.price = _price;\r\n\t\tnewProduct.quantity = _quantity;\r\n\r\n\t\ttotalProducts++;\r\n\t\t// productArray.push(totalProducts);\r\n\r\n\t\tNewProduct(totalProducts, _name, _description, _price, _quantity);\r\n\t\treturn(totalProducts);\r\n\t}\r\n\r\n\tfunction getProductInfo(uint id) constant returns(string name, string seller, string description, uint price, uint quantity) {\r\n\t\tProduct prod = products[id];\r\n\t\tname = prod.name;\r\n\t\tseller = prod.seller.name;\r\n\t\tdescription = prod.description;\r\n\t\tprice = prod.price;\r\n\t\tquantity = prod.quantity;\r\n\t\treturn (name, seller, description, price, quantity);\r\n\t}\r\n\r\n\tfunction purchaseProduct(uint id, uint quant) {\r\n\t\tProduct product = products[id];\r\n\t\tif (msg.sender != product.seller.account && members[msg.sender].balance >= product.price*quant && product.quantity > quant) {\r\n\t\t\tmembers[msg.sender].balance -= product.price*quant;\r\n\t\t\tmembers[product.seller.account].balance += product.price*quant;\r\n\t\t\tproduct.quantity -= quant;\r\n\t\t}\r\n\t}\r\n}",
  "sourcePath": "C:\\Users\\anura\\Desktop\\mva\\contracts\\FarmShare.sol",
  "compiler": {
    "name": "solc",
    "version": "0.4.18+commit.9cf6e910.Emscripten.clang"
  },
  "schemaVersion": "1.0.1",
  "updatedAt": "2017-12-03T03:09:19.080Z"
}