{
  "contractName": "TaskBoard",
  "abi": [
    {
      "constant": true,
      "inputs": [
        {
          "name": "",
          "type": "address"
        }
      ],
      "name": "members",
      "outputs": [
        {
          "name": "name",
          "type": "string"
        },
        {
          "name": "reputation",
          "type": "uint256"
        },
        {
          "name": "balance",
          "type": "uint256"
        },
        {
          "name": "isMember",
          "type": "bool"
        },
        {
          "name": "account",
          "type": "address"
        },
        {
          "name": "tasksCompleted",
          "type": "uint256"
        }
      ],
      "payable": false,
      "stateMutability": "view",
      "type": "function"
    },
    {
      "constant": false,
      "inputs": [
        {
          "name": "id",
          "type": "uint256"
        }
      ],
      "name": "acceptTask",
      "outputs": [
        {
          "name": "success",
          "type": "bool"
        }
      ],
      "payable": false,
      "stateMutability": "nonpayable",
      "type": "function"
    },
    {
      "constant": false,
      "inputs": [],
      "name": "taskBoard",
      "outputs": [],
      "payable": false,
      "stateMutability": "nonpayable",
      "type": "function"
    },
    {
      "constant": false,
      "inputs": [
        {
          "name": "_name",
          "type": "string"
        },
        {
          "name": "_description",
          "type": "string"
        },
        {
          "name": "_price",
          "type": "uint256"
        },
        {
          "name": "_quantity",
          "type": "uint256"
        }
      ],
      "name": "newProduct",
      "outputs": [
        {
          "name": "prodId",
          "type": "uint32"
        }
      ],
      "payable": false,
      "stateMutability": "nonpayable",
      "type": "function"
    },
    {
      "constant": true,
      "inputs": [
        {
          "name": "addr",
          "type": "address"
        }
      ],
      "name": "getMemberInfo",
      "outputs": [
        {
          "name": "name",
          "type": "string"
        },
        {
          "name": "account",
          "type": "address"
        },
        {
          "name": "status",
          "type": "bool"
        },
        {
          "name": "balance",
          "type": "uint256"
        },
        {
          "name": "reputation",
          "type": "uint256"
        },
        {
          "name": "tasks",
          "type": "uint256"
        }
      ],
      "payable": false,
      "stateMutability": "view",
      "type": "function"
    },
    {
      "constant": false,
      "inputs": [
        {
          "name": "_newCommunity",
          "type": "address"
        }
      ],
      "name": "newCommunity",
      "outputs": [],
      "payable": false,
      "stateMutability": "nonpayable",
      "type": "function"
    },
    {
      "constant": false,
      "inputs": [
        {
          "name": "_newMember",
          "type": "address"
        },
        {
          "name": "_newName",
          "type": "string"
        }
      ],
      "name": "acceptMember",
      "outputs": [],
      "payable": false,
      "stateMutability": "nonpayable",
      "type": "function"
    },
    {
      "constant": true,
      "inputs": [
        {
          "name": "id",
          "type": "uint256"
        }
      ],
      "name": "getProductInfo",
      "outputs": [
        {
          "name": "name",
          "type": "string"
        },
        {
          "name": "seller",
          "type": "string"
        },
        {
          "name": "description",
          "type": "string"
        },
        {
          "name": "price",
          "type": "uint256"
        },
        {
          "name": "quantity",
          "type": "uint256"
        }
      ],
      "payable": false,
      "stateMutability": "view",
      "type": "function"
    },
    {
      "constant": false,
      "inputs": [
        {
          "name": "_newTreasury",
          "type": "address"
        }
      ],
      "name": "newTreasury",
      "outputs": [],
      "payable": false,
      "stateMutability": "nonpayable",
      "type": "function"
    },
    {
      "constant": true,
      "inputs": [],
      "name": "totalProducts",
      "outputs": [
        {
          "name": "",
          "type": "uint32"
        }
      ],
      "payable": false,
      "stateMutability": "view",
      "type": "function"
    },
    {
      "constant": false,
      "inputs": [
        {
          "name": "id",
          "type": "uint256"
        },
        {
          "name": "quant",
          "type": "uint256"
        }
      ],
      "name": "purchaseProduct",
      "outputs": [],
      "payable": false,
      "stateMutability": "nonpayable",
      "type": "function"
    },
    {
      "constant": true,
      "inputs": [],
      "name": "getParameters",
      "outputs": [
        {
          "name": "getTreasury",
          "type": "address"
        },
        {
          "name": "getCommunity",
          "type": "address"
        },
        {
          "name": "getIniMemberTokens",
          "type": "uint256"
        },
        {
          "name": "getIniMemberReputation",
          "type": "uint256"
        },
        {
          "name": "get_tokenName",
          "type": "string"
        },
        {
          "name": "get_communityName",
          "type": "string"
        }
      ],
      "payable": false,
      "stateMutability": "view",
      "type": "function"
    },
    {
      "constant": false,
      "inputs": [],
      "name": "remove",
      "outputs": [],
      "payable": false,
      "stateMutability": "nonpayable",
      "type": "function"
    },
    {
      "constant": false,
      "inputs": [
        {
          "name": "_payee",
          "type": "address"
        },
        {
          "name": "_payment",
          "type": "uint256"
        }
      ],
      "name": "transfer",
      "outputs": [],
      "payable": false,
      "stateMutability": "nonpayable",
      "type": "function"
    },
    {
      "constant": false,
      "inputs": [
        {
          "name": "_name",
          "type": "string"
        },
        {
          "name": "_description",
          "type": "string"
        },
        {
          "name": "_reward",
          "type": "uint256"
        }
      ],
      "name": "newTask",
      "outputs": [
        {
          "name": "taskId",
          "type": "uint32"
        }
      ],
      "payable": false,
      "stateMutability": "nonpayable",
      "type": "function"
    },
    {
      "constant": false,
      "inputs": [
        {
          "name": "cmAddr",
          "type": "address"
        }
      ],
      "name": "setCMAddress",
      "outputs": [
        {
          "name": "result",
          "type": "bool"
        }
      ],
      "payable": false,
      "stateMutability": "nonpayable",
      "type": "function"
    },
    {
      "constant": true,
      "inputs": [
        {
          "name": "id",
          "type": "uint256"
        }
      ],
      "name": "getTaskInfo",
      "outputs": [
        {
          "name": "name",
          "type": "string"
        },
        {
          "name": "description",
          "type": "string"
        },
        {
          "name": "reward",
          "type": "uint256"
        },
        {
          "name": "owner",
          "type": "address"
        },
        {
          "name": "volunteer",
          "type": "address"
        },
        {
          "name": "status",
          "type": "uint8"
        }
      ],
      "payable": false,
      "stateMutability": "view",
      "type": "function"
    },
    {
      "constant": true,
      "inputs": [],
      "name": "totalTasks",
      "outputs": [
        {
          "name": "",
          "type": "uint32"
        }
      ],
      "payable": false,
      "stateMutability": "view",
      "type": "function"
    },
    {
      "constant": false,
      "inputs": [
        {
          "name": "_newCommunityTax",
          "type": "int256"
        },
        {
          "name": "_newRewardRate",
          "type": "uint256"
        },
        {
          "name": "_newIniTokens",
          "type": "uint256"
        },
        {
          "name": "_newIniR",
          "type": "uint256"
        }
      ],
      "name": "newParameters",
      "outputs": [],
      "payable": false,
      "stateMutability": "nonpayable",
      "type": "function"
    },
    {
      "constant": false,
      "inputs": [
        {
          "name": "_oldMember",
          "type": "address"
        }
      ],
      "name": "kickOutMember",
      "outputs": [],
      "payable": false,
      "stateMutability": "nonpayable",
      "type": "function"
    },
    {
      "constant": false,
      "inputs": [
        {
          "name": "id",
          "type": "uint256"
        }
      ],
      "name": "completeTask",
      "outputs": [
        {
          "name": "status",
          "type": "string"
        }
      ],
      "payable": false,
      "stateMutability": "nonpayable",
      "type": "function"
    },
    {
      "anonymous": false,
      "inputs": [
        {
          "indexed": false,
          "name": "id",
          "type": "uint256"
        },
        {
          "indexed": false,
          "name": "name",
          "type": "string"
        },
        {
          "indexed": false,
          "name": "description",
          "type": "string"
        },
        {
          "indexed": false,
          "name": "reward",
          "type": "uint256"
        }
      ],
      "name": "NewTask",
      "type": "event"
    },
    {
      "anonymous": false,
      "inputs": [
        {
          "indexed": false,
          "name": "_amount",
          "type": "uint256"
        },
        {
          "indexed": true,
          "name": "_from",
          "type": "address"
        },
        {
          "indexed": true,
          "name": "_to",
          "type": "address"
        },
        {
          "indexed": false,
          "name": "_timeStampT",
          "type": "uint256"
        }
      ],
      "name": "Transfer",
      "type": "event"
    },
    {
      "anonymous": false,
      "inputs": [
        {
          "indexed": true,
          "name": "_member",
          "type": "address"
        },
        {
          "indexed": false,
          "name": "_alias",
          "type": "string"
        }
      ],
      "name": "NewMember",
      "type": "event"
    },
    {
      "anonymous": false,
      "inputs": [
        {
          "indexed": true,
          "name": "_exMember",
          "type": "address"
        },
        {
          "indexed": false,
          "name": "_exAlias",
          "type": "string"
        }
      ],
      "name": "OldMember",
      "type": "event"
    },
    {
      "anonymous": false,
      "inputs": [
        {
          "indexed": false,
          "name": "id",
          "type": "uint256"
        },
        {
          "indexed": false,
          "name": "name",
          "type": "string"
        },
        {
          "indexed": false,
          "name": "description",
          "type": "string"
        },
        {
          "indexed": false,
          "name": "price",
          "type": "uint256"
        },
        {
          "indexed": false,
          "name": "quantity",
          "type": "uint256"
        }
      ],
      "name": "NewProduct",
      "type": "event"
    }
  ],
  "bytecode": "0x606060405233600460006101000a81548173ffffffffffffffffffffffffffffffffffffffff021916908373ffffffffffffffffffffffffffffffffffffffff16021790555033600560006101000a81548173ffffffffffffffffffffffffffffffffffffffff021916908373ffffffffffffffffffffffffffffffffffffffff16021790555060006009819055506064600781905550606460088190555060646000819055506040805190810160405280600681526020017f736861726573000000000000000000000000000000000000000000000000000081525060019080519060200190620000f392919062000196565b506040805190810160405280600281526020017f4653000000000000000000000000000000000000000000000000000000000000815250600290805190602001906200014192919062000196565b506040805190810160405280600981526020017f4661726d53686172650000000000000000000000000000000000000000000000815250600390805190602001906200018f92919062000196565b5062000245565b828054600181600116156101000203166002900490600052602060002090601f016020900481019282601f10620001d957805160ff19168380011785556200020a565b828001600101855582156200020a579182015b8281111562000209578251825591602001919060010190620001ec565b5b5090506200021991906200021d565b5090565b6200024291905b808211156200023e57600081600090555060010162000224565b5090565b90565b612e2e80620002556000396000f30060606040526004361061011d576000357c0100000000000000000000000000000000000000000000000000000000900463ffffffff16806308ae4b0c146101225780631bf6912d146102445780633712a4b71461027f5780633dd7c1b9146102945780635f1231ea14610366578063650936611461046b5780637817a60f146104a457806379a85e6c146105205780639718b524146106a25780639b9d326d146106db578063a044042614610710578063a5ea11da1461073c578063a7f43779146108aa578063a9059cbb146108bf578063a9bcf66b14610901578063b11df411146109ca578063d1a1b99914610a1b578063d22c81e514610ba5578063d7bc23af14610bda578063d9e947f314610c18578063e1e2955814610c51575b600080fd5b341561012d57600080fd5b610159600480803573ffffffffffffffffffffffffffffffffffffffff16906020019091905050610ced565b6040518080602001878152602001868152602001851515151581526020018473ffffffffffffffffffffffffffffffffffffffff1673ffffffffffffffffffffffffffffffffffffffff1681526020018381526020018281038252888181546001816001161561010002031660029004815260200191508054600181600116156101000203166002900480156102305780601f1061020557610100808354040283529160200191610230565b820191906000526020600020905b81548152906001019060200180831161021357829003601f168201915b505097505050505050505060405180910390f35b341561024f57600080fd5b6102656004808035906020019091905050610d55565b604051808215151515815260200191505060405180910390f35b341561028a57600080fd5b610292610e1a565b005b341561029f57600080fd5b610344600480803590602001908201803590602001908080601f0160208091040260200160405190810160405280939291908181526020018383808284378201915050505050509190803590602001908201803590602001908080601f01602080910402602001604051908101604052809392919081815260200183838082843782019150505050505091908035906020019091908035906020019091905050610f52565b604051808263ffffffff1663ffffffff16815260200191505060405180910390f35b341561037157600080fd5b61039d600480803573ffffffffffffffffffffffffffffffffffffffff1690602001909190505061128f565b60405180806020018773ffffffffffffffffffffffffffffffffffffffff1673ffffffffffffffffffffffffffffffffffffffff16815260200186151515158152602001858152602001848152602001838152602001828103825288818151815260200191508051906020019080838360005b8381101561042b578082015181840152602081019050610410565b50505050905090810190601f1680156104585780820380516001836020036101000a031916815260200191505b5097505050505050505060405180910390f35b341561047657600080fd5b6104a2600480803573ffffffffffffffffffffffffffffffffffffffff169060200190919050506113fe565b005b34156104af57600080fd5b61051e600480803573ffffffffffffffffffffffffffffffffffffffff1690602001909190803590602001908201803590602001908080601f0160208091040260200160405190810160405280939291908181526020018383808284378201915050505050509190505061149f565b005b341561052b57600080fd5b61054160048080359060200190919050506117a4565b60405180806020018060200180602001868152602001858152602001848103845289818151815260200191508051906020019080838360005b8381101561059557808201518184015260208101905061057a565b50505050905090810190601f1680156105c25780820380516001836020036101000a031916815260200191505b50848103835288818151815260200191508051906020019080838360005b838110156105fb5780820151818401526020810190506105e0565b50505050905090810190601f1680156106285780820380516001836020036101000a031916815260200191505b50848103825287818151815260200191508051906020019080838360005b83811015610661578082015181840152602081019050610646565b50505050905090810190601f16801561068e5780820380516001836020036101000a031916815260200191505b509850505050505050505060405180910390f35b34156106ad57600080fd5b6106d9600480803573ffffffffffffffffffffffffffffffffffffffff169060200190919050506119dd565b005b34156106e657600080fd5b6106ee611a7e565b604051808263ffffffff1663ffffffff16815260200191505060405180910390f35b341561071b57600080fd5b61073a6004808035906020019091908035906020019091905050611a94565b005b341561074757600080fd5b61074f611c55565b604051808773ffffffffffffffffffffffffffffffffffffffff1673ffffffffffffffffffffffffffffffffffffffff1681526020018673ffffffffffffffffffffffffffffffffffffffff1673ffffffffffffffffffffffffffffffffffffffff1681526020018581526020018481526020018060200180602001838103835285818151815260200191508051906020019080838360005b838110156108035780820151818401526020810190506107e8565b50505050905090810190601f1680156108305780820380516001836020036101000a031916815260200191505b50838103825284818151815260200191508051906020019080838360005b8381101561086957808201518184015260208101905061084e565b50505050905090810190601f1680156108965780820380516001836020036101000a031916815260200191505b509850505050505050505060405180910390f35b34156108b557600080fd5b6108bd611e01565b005b34156108ca57600080fd5b6108ff600480803573ffffffffffffffffffffffffffffffffffffffff16906020019091908035906020019091905050611e94565b005b341561090c57600080fd5b6109a8600480803590602001908201803590602001908080601f0160208091040260200160405190810160405280939291908181526020018383808284378201915050505050509190803590602001908201803590602001908080601f016020809104026020016040519081016040528093929190818152602001838380828437820191505050505050919080359060200190919050506120dd565b604051808263ffffffff1663ffffffff16815260200191505060405180910390f35b34156109d557600080fd5b610a01600480803573ffffffffffffffffffffffffffffffffffffffff16906020019091905050612472565b604051808215151515815260200191505060405180910390f35b3415610a2657600080fd5b610a3c6004808035906020019091905050612563565b6040518080602001806020018781526020018673ffffffffffffffffffffffffffffffffffffffff1673ffffffffffffffffffffffffffffffffffffffff1681526020018573ffffffffffffffffffffffffffffffffffffffff1673ffffffffffffffffffffffffffffffffffffffff168152602001846003811115610abe57fe5b60ff168152602001838103835289818151815260200191508051906020019080838360005b83811015610afe578082015181840152602081019050610ae3565b50505050905090810190601f168015610b2b5780820380516001836020036101000a031916815260200191505b50838103825288818151815260200191508051906020019080838360005b83811015610b64578082015181840152602081019050610b49565b50505050905090810190601f168015610b915780820380516001836020036101000a031916815260200191505b509850505050505050505060405180910390f35b3415610bb057600080fd5b610bb8612768565b604051808263ffffffff1663ffffffff16815260200191505060405180910390f35b3415610be557600080fd5b610c16600480803590602001909190803590602001909190803590602001909190803590602001909190505061277e565b005b3415610c2357600080fd5b610c4f600480803573ffffffffffffffffffffffffffffffffffffffff169060200190919050506127e8565b005b3415610c5c57600080fd5b610c7260048080359060200190919050506129ba565b6040518080602001828103825283818151815260200191508051906020019080838360005b83811015610cb2578082015181840152602081019050610c97565b50505050905090810190601f168015610cdf5780820380516001836020036101000a031916815260200191505b509250505060405180910390f35b600f60205280600052604060002060009150905080600001908060010154908060020154908060030160009054906101000a900460ff16908060030160019054906101000a900473ffffffffffffffffffffffffffffffffffffffff16908060040154905086565b60008060146000848152602001908152602001600020905060006003811115610d7a57fe5b8160040160149054906101000a900460ff166003811115610d9757fe5b1415610e0f5760018160040160146101000a81548160ff02191690836003811115610dbe57fe5b0217905550338160040160006101000a81548173ffffffffffffffffffffffffffffffffffffffff021916908373ffffffffffffffffffffffffffffffffffffffff16021790555060019150610e14565b600091505b50919050565b601160009054906101000a900473ffffffffffffffffffffffffffffffffffffffff1673ffffffffffffffffffffffffffffffffffffffff1663ec56a3736000604051602001526040518163ffffffff167c010000000000000000000000000000000000000000000000000000000002815260040180807f46530000000000000000000000000000000000000000000000000000000000008152506020019050602060405180830381600087803b1515610ed357600080fd5b6102c65a03f11515610ee457600080fd5b50505060405180519050601360006101000a81548173ffffffffffffffffffffffffffffffffffffffff021916908373ffffffffffffffffffffffffffffffffffffffff1602179055506000601160146101000a81548163ffffffff021916908363ffffffff160217905550565b60008060106000600b60009054906101000a900463ffffffff1663ffffffff1681526020019081526020016000209050600f60003373ffffffffffffffffffffffffffffffffffffffff1673ffffffffffffffffffffffffffffffffffffffff1681526020019081526020016000208160040160008201816000019080546001816001161561010002031660029004610fec929190612bc9565b5060018201548160010155600282015481600201556003820160009054906101000a900460ff168160030160006101000a81548160ff0219169083151502179055506003820160019054906101000a900473ffffffffffffffffffffffffffffffffffffffff168160030160016101000a81548173ffffffffffffffffffffffffffffffffffffffff021916908373ffffffffffffffffffffffffffffffffffffffff1602179055506004820154816004015560058201816005019080546110b5929190612c50565b50905050858160000190805190602001906110d1929190612cb0565b50848160010190805190602001906110ea929190612cb0565b50838160020181905550828160030181905550600b600081819054906101000a900463ffffffff168092919060010191906101000a81548163ffffffff021916908363ffffffff160217905550507fc86b920148e151a78e4a627284a763302c966579a89be8494ba9562ac1f61b7b600b60009054906101000a900463ffffffff1687878787604051808663ffffffff1681526020018060200180602001858152602001848152602001838103835287818151815260200191508051906020019080838360005b838110156111cc5780820151818401526020810190506111b1565b50505050905090810190601f1680156111f95780820380516001836020036101000a031916815260200191505b50838103825286818151815260200191508051906020019080838360005b83811015611232578082015181840152602081019050611217565b50505050905090810190601f16801561125f5780820380516001836020036101000a031916815260200191505b5097505050505050505060405180910390a1600b60009054906101000a900463ffffffff16915050949350505050565b611297612d30565b600080600080600080600080600080600080600f60008f73ffffffffffffffffffffffffffffffffffffffff1673ffffffffffffffffffffffffffffffffffffffff16815260200190815260200160002096508660000195508660030160019054906101000a900473ffffffffffffffffffffffffffffffffffffffff1694508660030160009054906101000a900460ff169350866002015492508660010154915086600401549050858585858585858054600181600116156101000203166002900480601f0160208091040260200160405190810160405280929190818152602001828054600181600116156101000203166002900480156113db5780601f106113b0576101008083540402835291602001916113db565b820191906000526020600020905b8154815290600101906020018083116113be57829003601f168201915b505050505095509c509c509c509c509c509c505050505050505091939550919395565b600460009054906101000a900473ffffffffffffffffffffffffffffffffffffffff1673ffffffffffffffffffffffffffffffffffffffff163373ffffffffffffffffffffffffffffffffffffffff1614151561145a5761149c565b80600560006101000a81548173ffffffffffffffffffffffffffffffffffffffff021916908373ffffffffffffffffffffffffffffffffffffffff1602179055505b50565b600560009054906101000a900473ffffffffffffffffffffffffffffffffffffffff1673ffffffffffffffffffffffffffffffffffffffff163373ffffffffffffffffffffffffffffffffffffffff161415156114fb576117a0565b81600f60008473ffffffffffffffffffffffffffffffffffffffff1673ffffffffffffffffffffffffffffffffffffffff16815260200190815260200160002060030160016101000a81548173ffffffffffffffffffffffffffffffffffffffff021916908373ffffffffffffffffffffffffffffffffffffffff1602179055506001600f60008473ffffffffffffffffffffffffffffffffffffffff1673ffffffffffffffffffffffffffffffffffffffff16815260200190815260200160002060030160006101000a81548160ff021916908315150217905550600754600f60008473ffffffffffffffffffffffffffffffffffffffff1673ffffffffffffffffffffffffffffffffffffffff1681526020019081526020016000206002018190555080600f60008473ffffffffffffffffffffffffffffffffffffffff1673ffffffffffffffffffffffffffffffffffffffff1681526020019081526020016000206000019080519060200190611676929190612cb0565b50600a805480600101828161168b9190612d44565b9160005260206000209001600084909190916101000a81548173ffffffffffffffffffffffffffffffffffffffff021916908373ffffffffffffffffffffffffffffffffffffffff160217905550506007546009600082825401925050819055508173ffffffffffffffffffffffffffffffffffffffff167f2373fd48c1688b65732996810a391f6ad6d243ae22414ffdbb4e3495c8302e43826040518080602001828103825283818151815260200191508051906020019080838360005b8381101561176557808201518184015260208101905061174a565b50505050905090810190601f1680156117925780820380516001836020036101000a031916815260200191505b509250505060405180910390a25b5050565b6117ac612d30565b6117b4612d30565b6117bc612d30565b6000806000601060008881526020019081526020016000209050806000018054600181600116156101000203166002900480601f01602080910402602001604051908101604052809291908181526020018280546001816001161561010002031660029004801561186e5780601f106118435761010080835404028352916020019161186e565b820191906000526020600020905b81548152906001019060200180831161185157829003601f168201915b50505050509550806004016000018054600181600116156101000203166002900480601f0160208091040260200160405190810160405280929190818152602001828054600181600116156101000203166002900480156119105780601f106118e557610100808354040283529160200191611910565b820191906000526020600020905b8154815290600101906020018083116118f357829003601f168201915b50505050509450806001018054600181600116156101000203166002900480601f0160208091040260200160405190810160405280929190818152602001828054600181600116156101000203166002900480156119af5780601f10611984576101008083540402835291602001916119af565b820191906000526020600020905b81548152906001019060200180831161199257829003601f168201915b5050505050935080600201549250806003015491508585858585955095509550955095505091939590929450565b600560009054906101000a900473ffffffffffffffffffffffffffffffffffffffff1673ffffffffffffffffffffffffffffffffffffffff163373ffffffffffffffffffffffffffffffffffffffff16141515611a3957611a7b565b80600460006101000a81548173ffffffffffffffffffffffffffffffffffffffff021916908373ffffffffffffffffffffffffffffffffffffffff1602179055505b50565b600b60009054906101000a900463ffffffff1681565b60006010600084815260200190815260200160002090508060040160030160019054906101000a900473ffffffffffffffffffffffffffffffffffffffff1673ffffffffffffffffffffffffffffffffffffffff163373ffffffffffffffffffffffffffffffffffffffff1614158015611b56575081816002015402600f60003373ffffffffffffffffffffffffffffffffffffffff1673ffffffffffffffffffffffffffffffffffffffff1681526020019081526020016000206002015410155b8015611b655750818160030154115b15611c505781816002015402600f60003373ffffffffffffffffffffffffffffffffffffffff1673ffffffffffffffffffffffffffffffffffffffff1681526020019081526020016000206002016000828254039250508190555081816002015402600f60008360040160030160019054906101000a900473ffffffffffffffffffffffffffffffffffffffff1673ffffffffffffffffffffffffffffffffffffffff1673ffffffffffffffffffffffffffffffffffffffff168152602001908152602001600020600201600082825401925050819055508181600301600082825403925050819055505b505050565b600080600080611c63612d30565b611c6b612d30565b600460009054906101000a900473ffffffffffffffffffffffffffffffffffffffff169550600560009054906101000a900473ffffffffffffffffffffffffffffffffffffffff1694506007549350600854925060018054600181600116156101000203166002900480601f016020809104026020016040519081016040528092919081815260200182805460018160011615610100020316600290048015611d555780601f10611d2a57610100808354040283529160200191611d55565b820191906000526020600020905b815481529060010190602001808311611d3857829003601f168201915b5050505050915060038054600181600116156101000203166002900480601f016020809104026020016040519081016040528092919081815260200182805460018160011615610100020316600290048015611df25780601f10611dc757610100808354040283529160200191611df2565b820191906000526020600020905b815481529060010190602001808311611dd557829003601f168201915b50505050509050909192939495565b601160009054906101000a900473ffffffffffffffffffffffffffffffffffffffff1673ffffffffffffffffffffffffffffffffffffffff163373ffffffffffffffffffffffffffffffffffffffff161415611e9257601160009054906101000a900473ffffffffffffffffffffffffffffffffffffffff1673ffffffffffffffffffffffffffffffffffffffff16ff5b565b600080600f60003373ffffffffffffffffffffffffffffffffffffffff1673ffffffffffffffffffffffffffffffffffffffff168152602001908152602001600020600201549150829050808211156120d75780600f60003373ffffffffffffffffffffffffffffffffffffffff1673ffffffffffffffffffffffffffffffffffffffff1681526020019081526020016000206002016000828254039250508190555080600f60008673ffffffffffffffffffffffffffffffffffffffff1673ffffffffffffffffffffffffffffffffffffffff1681526020019081526020016000206002016000828254019250508190555060646006548202811515611f9757fe5b04600f60008673ffffffffffffffffffffffffffffffffffffffff1673ffffffffffffffffffffffffffffffffffffffff1681526020019081526020016000206002016000828254039250508190555060646006548202811515611ff757fe5b04600f6000600560009054906101000a900473ffffffffffffffffffffffffffffffffffffffff1673ffffffffffffffffffffffffffffffffffffffff1673ffffffffffffffffffffffffffffffffffffffff168152602001908152602001600020600201600082825401925050819055508373ffffffffffffffffffffffffffffffffffffffff163373ffffffffffffffffffffffffffffffffffffffff167ff2dbd98d79f00f7aff338b824931d607bfcc63d47307162470f25a055102d3b08542604051808381526020018281526020019250505060405180910390a35b50505050565b6000806000601160009054906101000a900473ffffffffffffffffffffffffffffffffffffffff1673ffffffffffffffffffffffffffffffffffffffff1663ec56a3736000604051602001526040518163ffffffff167c010000000000000000000000000000000000000000000000000000000002815260040180807f46530000000000000000000000000000000000000000000000000000000000008152506020019050602060405180830381600087803b151561219b57600080fd5b6102c65a03f115156121ac57600080fd5b50505060405180519050915060146000601160149054906101000a900463ffffffff1663ffffffff1681526020019081526020016000209050338160030160006101000a81548173ffffffffffffffffffffffffffffffffffffffff021916908373ffffffffffffffffffffffffffffffffffffffff16021790555085816000019080519060200190612240929190612cb0565b5084816001019080519060200190612259929190612cb0565b5060008160040160146101000a81548160ff0219169083600381111561227b57fe5b02179055508381600201819055506011601481819054906101000a900463ffffffff168092919060010191906101000a81548163ffffffff021916908363ffffffff16021790555050601280548060010182816122d89190612d70565b9160005260206000209060089182820401919006600402601160149054906101000a900463ffffffff16909190916101000a81548163ffffffff021916908363ffffffff160217905550507fcaa39b7bae3ba3ef0accbccbd19abd79c40d2b96f2a2a4aba4f1c812697b82b4601160149054906101000a900463ffffffff16878787604051808563ffffffff1681526020018060200180602001848152602001838103835286818151815260200191508051906020019080838360005b838110156123b0578082015181840152602081019050612395565b50505050905090810190601f1680156123dd5780820380516001836020036101000a031916815260200191505b50838103825285818151815260200191508051906020019080838360005b838110156124165780820151818401526020810190506123fb565b50505050905090810190601f1680156124435780820380516001836020036101000a031916815260200191505b50965050505050505060405180910390a1601160149054906101000a900463ffffffff16925050509392505050565b600080601160009054906101000a900473ffffffffffffffffffffffffffffffffffffffff1673ffffffffffffffffffffffffffffffffffffffff161415801561250a5750601160009054906101000a900473ffffffffffffffffffffffffffffffffffffffff1673ffffffffffffffffffffffffffffffffffffffff163373ffffffffffffffffffffffffffffffffffffffff1614155b15612518576000905061255e565b81601160006101000a81548173ffffffffffffffffffffffffffffffffffffffff021916908373ffffffffffffffffffffffffffffffffffffffff160217905550600190505b919050565b61256b612d30565b612573612d30565b6000806000806000806000806000806000601460008f81526020019081526020016000209650866000019550866001019450866002015493508660030160009054906101000a900473ffffffffffffffffffffffffffffffffffffffff1692508660040160009054906101000a900473ffffffffffffffffffffffffffffffffffffffff1691508660040160149054906101000a900460ff169050858585858585858054600181600116156101000203166002900480601f0160208091040260200160405190810160405280929190818152602001828054600181600116156101000203166002900480156126a95780601f1061267e576101008083540402835291602001916126a9565b820191906000526020600020905b81548152906001019060200180831161268c57829003601f168201915b50505050509550848054600181600116156101000203166002900480601f0160208091040260200160405190810160405280929190818152602001828054600181600116156101000203166002900480156127455780601f1061271a57610100808354040283529160200191612745565b820191906000526020600020905b81548152906001019060200180831161272857829003601f168201915b505050505094509c509c509c509c509c509c505050505050505091939550919395565b601160149054906101000a900463ffffffff1681565b600460009054906101000a900473ffffffffffffffffffffffffffffffffffffffff1673ffffffffffffffffffffffffffffffffffffffff163373ffffffffffffffffffffffffffffffffffffffff161415156127da576127e2565b816007819055505b50505050565b6000600560009054906101000a900473ffffffffffffffffffffffffffffffffffffffff1673ffffffffffffffffffffffffffffffffffffffff163373ffffffffffffffffffffffffffffffffffffffff16141515612846576129b6565b6000600f60008473ffffffffffffffffffffffffffffffffffffffff1673ffffffffffffffffffffffffffffffffffffffff16815260200190815260200160002060030160006101000a81548160ff021916908315150217905550600f60008373ffffffffffffffffffffffffffffffffffffffff1673ffffffffffffffffffffffffffffffffffffffff16815260200190815260200160002060000190508173ffffffffffffffffffffffffffffffffffffffff167f68a013b7171e96d379c50f94032a2db48bd01650bc68f0d5e8c0ae9da6e6a70f8260405180806020018281038252838181546001816001161561010002031660029004815260200191508054600181600116156101000203166002900480156129a75780601f1061297c576101008083540402835291602001916129a7565b820191906000526020600020905b81548152906001019060200180831161298a57829003601f168201915b50509250505060405180910390a25b5050565b6129c2612d30565b60006129cc612d30565b6014600085815260200190815260200160002091506040805190810160405280600981526020017f6e6f206368616e6765000000000000000000000000000000000000000000000081525090508160040160009054906101000a900473ffffffffffffffffffffffffffffffffffffffff1673ffffffffffffffffffffffffffffffffffffffff163373ffffffffffffffffffffffffffffffffffffffff161415612ad45760028260040160146101000a81548160ff02191690836003811115612a9257fe5b02179055506040805190810160405280602081526020017f436f6d706c6574696f6e206177616974696e6720636f6e6669726d6174696f6e8152509050612bbf565b8160030160009054906101000a900473ffffffffffffffffffffffffffffffffffffffff1673ffffffffffffffffffffffffffffffffffffffff163373ffffffffffffffffffffffffffffffffffffffff16148015612b5a5750600380811115612b3a57fe5b8260040160149054906101000a900460ff166003811115612b5757fe5b14155b15612bbe5760038260040160146101000a81548160ff02191690836003811115612b8057fe5b02179055506040805190810160405280600881526020017f436f6d706c65746500000000000000000000000000000000000000000000000081525090505b5b8092505050919050565b828054600181600116156101000203166002900490600052602060002090601f016020900481019282601f10612c025780548555612c3f565b82800160010185558215612c3f57600052602060002091601f016020900482015b82811115612c3e578254825591600101919060010190612c23565b5b509050612c4c9190612daa565b5090565b82805482825590600052602060002090600701600890048101928215612c9f576000526020600020916007016008900482015b82811115612c9e578254825591600101919060010190612c83565b5b509050612cac9190612dcf565b5090565b828054600181600116156101000203166002900490600052602060002090601f016020900481019282601f10612cf157805160ff1916838001178555612d1f565b82800160010185558215612d1f579182015b82811115612d1e578251825591602001919060010190612d03565b5b509050612d2c9190612daa565b5090565b602060405190810160405280600081525090565b815481835581811511612d6b57818360005260206000209182019101612d6a9190612daa565b5b505050565b815481835581811511612da5576007016008900481600701600890048360005260206000209182019101612da49190612daa565b5b505050565b612dcc91905b80821115612dc8576000816000905550600101612db0565b5090565b90565b612dff91905b80821115612dfb57600081816101000a81549063ffffffff021916905550600101612dd5565b5090565b905600a165627a7a72305820e0f1ab93e1430a751aafc030fca04b4b1906f1c9aceaf9a060c9bd36e6679a140029",
  "source": "import \"./ContractManager.sol\";\r\nimport \"./FarmShare.sol\";\r\n\r\ncontract TaskBoard is FarmShare, ContractManagerEnabled {\r\n  uint32 public totalTasks;\r\n  uint32[] taskArray;\r\n  address fs;\r\n\r\n  function taskBoard() {\r\n    fs = ContractProvider(CM).contracts(\"FS\");\r\n\t\ttotalTasks = 0;\r\n  }\r\n\r\n  enum TaskStatus {\r\n    New,\r\n    InProgress,\r\n    Completed,\r\n    Done\r\n  }\r\n\r\n  struct Task {\r\n    string name;\r\n    string description;\r\n    uint reward;\r\n    address owner;\r\n    address volunteer;\r\n    TaskStatus status;\r\n  }\r\n\r\n  mapping (uint => Task) tasks;\r\n\r\n  event NewTask(uint id, string name, string description, uint reward);\r\n\r\n  function newTask(string _name, string _description, uint _reward) public returns (uint32 taskId) {\r\n    address fs = ContractProvider(CM).contracts(\"FS\");\r\n\t\tTask newTask = tasks[totalTasks];\r\n\t\tnewTask.owner = msg.sender;\r\n\t\tnewTask.name = _name;\r\n\t\tnewTask.description = _description;\r\n\t\tnewTask.status = TaskStatus.New;\r\n\t\tnewTask.reward = _reward;\r\n\r\n\t\ttotalTasks++;\r\n\t\ttaskArray.push(totalTasks);\r\n\r\n\t\tNewTask(totalTasks, _name, _description, _reward);\r\n\t\treturn(totalTasks);\r\n\t}\r\n\r\n\tfunction getTaskInfo(uint id) constant returns(string name, string description, uint reward, address owner, address volunteer, TaskStatus status){\r\n\t\tTask task = tasks[id];\r\n\t\tstring taskName = task.name;\r\n\t\tstring taskDescription = task.description;\r\n\t\tuint taskReward = task.reward;\r\n\t\taddress taskOwner = task.owner;\r\n\t\taddress taskVolunteer = task.volunteer;\r\n\t\tTaskStatus taskStatus = task.status;\r\n\t\treturn (taskName, taskDescription, taskReward, taskOwner, taskVolunteer, taskStatus);\r\n\t}\r\n\r\n  function acceptTask(uint id) public returns (bool success) {\r\n    Task task = tasks[id];\r\n    if (task.status == TaskStatus.New) {\r\n      task.status = TaskStatus.InProgress;\r\n      task.volunteer = msg.sender;\r\n      return(true);\r\n    } else {\r\n      return(false);\r\n    }\r\n  }\r\n\r\n  function completeTask(uint id) public returns (string status) {\r\n    Task task = tasks[id];\r\n    var taskStatus = \"no change\";\r\n    if (msg.sender == task.volunteer) {\r\n      task.status = TaskStatus.Completed;\r\n      taskStatus = \"Completion awaiting confirmation\";\r\n    } else if (msg.sender == task.owner && task.status != TaskStatus.Done) {\r\n      task.status = TaskStatus.Done;\r\n      taskStatus = \"Complete\";\r\n      // members[task.owner.account].balance -= task.reward;\r\n      // members[task.volunteer.account].balance += task.reward;\r\n    }\r\n    return (taskStatus);\r\n  }\r\n\r\n  // function getOpenTasks() constant returns(uint[] taskList) {\r\n\t\t//     uint[] tList;\r\n\t\t//     var list = taskArray;\r\n\t\t//     for (uint i = 0; i < list.length; i++){\r\n\t\t\t//         if (tasks[i].status == TaskStatus.New) {\r\n\t\t\t\t//             tList.push(i);\r\n\t\t\t\t//         }\r\n\t\t\t\t//     }\r\n\t\t\t\t//     return (tList);\r\n\t\t\t\t// }\r\n\r\n\r\n}\r\n",
  "sourcePath": "C:\\Users\\anura\\Desktop\\mva\\contracts\\TaskBoard.sol",
  "compiler": {
    "name": "solc",
    "version": "0.4.18+commit.9cf6e910.Emscripten.clang"
  },
  "schemaVersion": "1.0.1",
  "updatedAt": "2017-12-03T03:09:19.048Z"
}